:4000000000100020110000006D0400006D04000008B500F045FAC04610B5184C23688022D20213432360182000F06CFC2268144B13402360134A144B1A603022134B1A60F9
:40004000203A134B1A601032124B1A6082221206114B1A60114B124A1360124A1360124A124B1A600920124900F0F2FB092000F0E3FB00220F4B1A6010BDC04600010B4009
:40008000FFFFFBFF0600008004010B401C020240200202402402024008010B400700008000000240400002400E00008080000240150B00000C020B4010B572B6002410E0DD
:4000C000324863001A195200821891881B195B001A5AC31858880004104300F043FA0134E4B2012CECD92949081C0C30243100F01FFA274A274B1A60274A284B1A60992345
:400100001B04274A1360A021C903264A1160264A136080218904254A1160254A1360254A136080221205244B1A6080221206234B1A60234B197802220A431A702148027878
:400140003C218A4328390A430270197816220A431A708C221C4B1A60C02212041B4B1A600C221B4B1A60802252011A4B1A601A4A1A4B1A6080221A4B1A601A4A1A4B1A6045
:40018000FFF74AFF00F004FA10BDC04648300000006700300000014000EE00300C00014000500F4008500F4010500F4014500F4020500F4030500F4034500F4038500F40A4
:4001C00000700F4001700F4000000440080004401800044008010440B66D1B000802044000030440808DC0000803044010B5064C2378002B07D1054B002B02D0044800E02A
:4002000000BF0123237010BD48010020000000000430000008B5084B002B03D00748084900E000BF07480368002B00D108BD064B002BFBD09847F9E70000000004300000DC
:400240004C010020C80000200000000008B5012000F074FA0120002100F0D0FA064800F05FFA064800F0C0FC054800F031FD9620400000F025FB08BD18300000B80B00001F
:40028000AC0D000008B5012000F058FA0120002100F0B4FA064800F043FA064800F0A4FC054800F015FDC820400000F009FB08BD303000003C0F00001815000008B50A1C41
:4002C000014902F097FA08BD4430000038B500F0DFFC00F051FD00F081FA544800F068F9012000F02BFA0020002100F087FA62B600F034FE00F042FE022000F049FE0020DF
:4003000000F05AFE4A4C2060012000F055FE60602268484B9A4202D90022454B1A60444B1868002828D002F051F9434A434B01F039FB434A434B01F0CFFD021C0B1C002053
:40034000414901F00BF800228023DB0501F0C4FD02F06EF93D4B186000F0E0FF011C3C4B18603C4C201CFFF7A9FF0020002100F045FA201C00F0D4F92D4B5A682D4B9A420B
:4003800002D900222A4B5A60294B586800281CD002F01CF9284A294B01F004FB284A294B01F09AFD021C0B1C0020274900F0D6FF00228023DB0501F08FFD02F039F9264B2D
:4003C000186000F0ABFF254B186000F0F5FB002803D000F0E1FC012803D1FFF753FFFFF735FF134CE368A3602369E360184B1B68193B23611A4800F06BFC22696420504357
:40040000184BC518E368D018A1684018322148432818D21A93009B185B00C018124B186000F0E2FB022000F04BFA65E7A030000064010020FFFF0000F168E388B5F8F43E2A
:4004400092CB7F48BF7D3D3F0000E03F1C020020AC010020E4010020A4010020A801002004100000EC13000018020020FEE7C04608B5031C084A1068C318084A9A1A802A7A
:4004800002DC054A136005E002F080F90C2303600120404208BDC046CC0000203002002070B50F4E0F4D13E029686B68AC68002202E001C901C30432A242FAD1E8680022DC
:4004C00002E0002102C304328242FAD11035013E002EE9D102F060F9FFF7F8FEFEE7C04601000000F831000008B500230AE0032B03D89A000A49505800E00A4899000A4A30
:40050000885001332F2BF2D9FFF7D6FD0022074B1A608022D205116801230B43136008BD000000006D04000000000020C0000020F0B50025002711E0BB00C658F3B2FF2245
:40054000964308E06A008A181478A419527822700135013BDBB2002BF4D10137052FEBD9F0BDC04608B50A1C002102F03BF908BD064B1B68002803D080221206134301E088
:400580005B005B08014A13607047C04680031A4008B5C0231B03044A1360044A13600120FFF7E6FF08BDC04600031A4040031A4038B5051C00F04EF8402000F0BFF80024B5
:4005C00004E0285D00F0A0F80134E4B23F2CF8D900F040F8802000F0B1F838BD10B50B4C23686022934323602368513A9343236022681023184310432060012000F078F94F
:40060000236810229343236010BDC0460002044038B5051C0E4C22682023134323602368402293432360002000F062F923680F229343236023681020284318432060012095
:4006400000F056F9236810229343236038BDC04600020440F8B5274A13687F218B43136025490B681B0B1B03244803430B60136820218B431360116840230B431360CA279D
:400680007F00002000F034F91A4C2368102633432360012000F02CF9194B1D682368B3432360002000F024F908231D40236833432360012000F01CF92368B3432360002DAB
:4006C00002D10A2000F014F9013F002D01D0002FD7D1084B1A6840218A431A601A683F318A431A60044A13681B0B1B0305490B431360F8BD00020440080204404902000085
:4007000004020440B60D000010B5041CFFF7A2FF2009FFF77DFF0F202040FFF779FF10BD38B5051C0078012404E0FFF7EDFF285D0134E4B20028F8D138BDC04610B5041C39
:40074000FFF788FF2009FFF749FF0F202040FFF745FF10BD08B5282000F0B2F80320FFF73DFF052000F0ACF80320FFF737FF0F2000F0A6F80320FFF731FF012000F0A0F854
:400780000220FFF72BFF052000F09AF80620FFF7D5FF0E20FFF7D2FF2C20FFF7CFFF0820FFF7CCFF0120FFF7C9FF0C20FFF7C6FF0320FFF7C3FF052000F082F80148FFF703
:4007C000F7FE08BDA030000008B50C20FFF7B6FF0122014B1A7008BD7801002008B5064B5B78002B04D1FFF7B5FF0122024B5A70FFF7EAFF08BDC0467801002008B5012896
:400800000BD0002804D002280CD003280FD012E08039C8B2FFF792FF0DE04039C8B2FFF78DFF08E06C39C8B2FFF788FF03E02C39C8B2FFF783FF08BD1F2318401E3B83408A
:40084000181C014B1860704700E100E001BE704738B5041C0D1C1F2802D90020FFF7F6FFA400034B9C4664442068256038BDC0464000002070B5041C0E1E032E02D90020AE
:40088000FFF7E4FF1F2C02D90020FFF7DFFF03252540ED00063500F0B5FBA408A400074B9C46644423680322AA409343AE40351C1D43256000F0AAFB70BDC04600E400E0A4
:4008C00010B5041C06E0084B186800F091FB074B9C46644480231B029C42F4D8024B5868604300F085FB10BDD00000200080FFFF08B5034B1B7A584300F07AFB08BDC046D2
:40090000D0000020F0B557464E46C0B483B0041C00F078FB0190E71E2D2F74D83F4B1B78DBB2A34208D33E4B1B78DBB29A463D4B1B78DBB2994631E03B4B1B78DBB2A34273
:4009400008D33A4B1B78DBB29A46394B1B78DBB2994623E0374B1B78DBB2A34208D3364B1B78DBB29A46354B1B78DBB2994615E0334B1B78DBB2A34208D3324B1B78DBB23F
:400980009A46314B1B78DBB2994607E02F4B1B78DBB29A462E4B1B78DBB299462D4BDE5D2F2E09D92A2C07D919222B4B1A60052000F01EFB192503E0274B1D683F231D40AB
:4009C000AE4206D2234BDA5D234B1A60052000F00FFB1F4B9C4664442378DBB21F4A13601F4B52461A601F4B4A461A600520FFF77FFFAE420AD9174BDA5D174B1A60052095
:400A000000F0F6FA02E00020FFF720FF019800F0FDFA03B00CBC91469A46F0BDC0F1FF0FC1F1FF0FC2F1FF0FC3F1FF0FC4F1FF0FC5F1FF0FC6F1FF0FC7F1FF0FC8F1FF0F85
:400A4000C9F1FF0FCAF1FF0FCBF1FF0FCCF1FF0FCDF1FF0FE03000002CFF0B4028FF0B401CFF0B4020FF0B40034B1868C0231B02184000D00120704700010B4008B500F0F5
:400A8000C1FA044A1368C02109020B43136000F0BDFA08BD00010B4010B500F0B3FA08490A68084B1A408024E40122430A600A6813408022120213430B6000F0A7FA10BD89
:400AC00000010B40FF3FFFFF70B5061C00F09AFA041CFFF7C9FF002803D0FFF7DDFF012500E000250848331C0340084A106808490840184310601368012D01D1FFF7BEFF8F
:400B0000201C00F083FA70BD0404040010020B40FBFBFBFF10B5244B1B685B0715D5234B1B685B070ED5224B9969042001401F4C22688A4322609A6982439A61DB68002B04
:400B400000D098470420FFF7BFFF174B1B685B0518D5164B1B685B0510D5154B99698022D2001140114802688A4302609969114A0A409A611B69002B00D098478020C0001A
:400B8000FFF7A2FF084B1B685B030CD5074B1B685B0304D5064B5B69002B00D098478020C002FFF791FF10BD10020B40E00000207C010020FFFBFFFF024B1868C006C00F85
:400BC0007047C046040104400004000C014B18607047C046480105400004000C014B18607047C046540105400004000C014B18607047C0464C01054038B5041C0D1C00F05C
:400C000001FAAC40024B1C6000F000FA38BDC0460800054008B500F0F5F9064A116802230B43136000F0F2F902201821FFF7E4FF08BDC04600000540014B18607047C046E8
:400C40007801054010B50D4C8023DB042360236823600020FFF7B8FF236823600C22084B1A600120FFF7E8FF3122064B1A600648FFF7B2FF0548FFF7B7FF10BD4001054052
:400C8000640105406801054060EA00007017000008B5064B1B78002B04D1FFF7D3FF0122024B1A70FFF7B6FF08BDC046980100200004000C014B18607047C046080105409A
:400CC0000004000C014B18607047C046140105400004000C014B18607047C0460C01054038B5041C0D1C00F08DF9AC40024B1C6000F08CF938BDC0460800054008B500F05B
:400D000081F9064A116801230B43136000F07EF901201821FFF7E4FF08BDC04600000540014B18607047C0463801054010B50D4C8023DB042360236823600020FFF7B8FFE4
:400D4000236823600C22084B1A600120FFF7E8FF3122064B1A600648FFF7B2FF0548FFF7B7FF10BD00010540240105402801054060EA0000B80B000008B5064B1B78002B9C
:400D800004D1FFF7D3FF0122024B1A70FFF7B6FF08BDC04699010020024B18688006C00F7047C0460403044010B50E200321FFF761FD0E204349FFF74BFD0322424B1A60B3
:400DC000424B1B68002B01DA414900E04149424A13680B431360414A414B1A60414A424B1A608022D205414B1A60414B414A1360414A1360414B1A68802149020A431A6036
:400E00003F4A13680B43136000233E4A13603E4A136001333D4A136002213D4A11603D4908683D4A024013430B60002447E03B49A2005058DC239B0103400919097A0B4321
:400E400037498C4662441360C30708D52D49086880225202131CA3401B0C03430B60A3002E4A9B589B0708D52749086880225202131CA3401B0C03430B60A300274A9B5846
:400E80009A0502D58020C00001E080204001DB0504D463000021234A995203E063000021204A9952204B5843204B9C466044204900F042F900B2A2001E4BD0500134012C80
:400EC000B5D910BDE50F000020001A4080031A40702010137020001300001A40AD00008004001A400000FF0F18001A401C001A400200020010001A4014001A4000031A40E2
:400F000040031A4028021A4038021A4018021A40000F1A4030001A40FFFFFFDF1031000080001A402802002010270000E40C0000C81900002002002008B5074B1B68002B4D
:400F400008DB054A1368802109060B4313600A20FFF7CEFC08BDC04600001A4008B5064B1B78002B04D1FFF71FFF0122024B1A70FFF7E2FF08BDC0469A010020034A136870
:400F8000802149020B4313607047C04604001A40021C83070CD0074B1B680120184001D19307F8D4002804D00122024B1A6000E00020704710021A4010B5041E012C02D967
:400FC0000020FFF743FC012C07D8A400044B9C46644420680004000C00E0002000B210BD80011A40014B1A681A60704710021A400230800804D0C0460138FDD1C046C0460F
:40100000C0467047EFF3108072B6704780F310887047C046C046C046002243088B4274D303098B425FD3030A8B4244D3030B8B4228D3030C8B420DD3FF22090212BA030CB8
:401040008B4202D31212090265D0030B8B4219D300E0090AC30B8B4201D3CB03C01A5241830B8B4201D38B03C01A5241430B8B4201D34B03C01A5241030B8B4201D30B0375
:40108000C01A5241C30A8B4201D3CB02C01A5241830A8B4201D38B02C01A5241430A8B4201D34B02C01A5241030A8B4201D30B02C01A5241CDD2C3098B4201D3CB01C01A71
:4010C000524183098B4201D38B01C01A524143098B4201D34B01C01A524103098B4201D30B01C01A5241C3088B4201D3CB00C01A524183088B4201D38B00C01A5241430858
:401100008B4201D34B00C01A5241411A00D20146524110467047FFE701B5002000F0FCF802BDC0460029F7D003B5FFF775FF0EBC4243891A1847C04603460B437FD4002268
:4011400043088B4274D303098B425FD3030A8B4244D3030B8B4228D3030C8B420DD3FF22090212BA030C8B4202D31212090265D0030B8B4219D300E0090AC30B8B4201D34C
:40118000CB03C01A5241830B8B4201D38B03C01A5241430B8B4201D34B03C01A5241030B8B4201D30B03C01A5241C30A8B4201D3CB02C01A5241830A8B4201D38B02C01AB9
:4011C0005241430A8B4201D34B02C01A5241030A8B4201D30B02C01A5241CDD2C3098B4201D3CB01C01A524183098B4201D38B01C01A524143098B4201D34B01C01A52417B
:4012000003098B4201D30B01C01A5241C3088B4201D3CB00C01A524183088B4201D38B00C01A524143088B4201D34B00C01A5241411A00D201465241104670475DE0CA0FF2
:4012400000D04942031000D34042534000229C4603098B422DD3030A8B4212D3FC22890112BA030A8B420CD3890192118B4208D3890192118B4204D389013AD0921100E092
:401280008909C3098B4201D3CB01C01A524183098B4201D38B01C01A524143098B4201D34B01C01A524103098B4201D30B01C01A5241C3088B4201D3CB00C01A52418308D5
:4012C0008B4201D38B00C01A5241D9D243088B4201D34B00C01A5241411A00D20146634652415B10104601D34042002B00D54942704763465B1000D3404201B5002000F0CE
:401300000BF802BD0029F8D003B5FFF715FF0EBC4243891A1847C0467047C0464202510A4200C30F120E00207E2A0DDD9D2A0CDC802000040143952A0ADC9620821AD14000
:401340000A1C58424240D0187047034A9818FBE7963A91400A1CF4E7FFFFFF7FF0B55F4656464D464446F0B40F0387B098464D003B0BCC0F061C924681469B466D0D0194A2
:401380006BD0664B9D4235D080275B467F031F43F3009946624BFF00400F9C4607430023BB46002665440093424617035000D20F53463F0B400D904600D172E0574A904243
:4013C00067D080235B031F435346554A5B0FFF001F43944653460021DB0060444246624092462D1A0E430F2E00D9A1E04D48B600805987465B461E4300D076E000239B46EF
:401400009946023308260093CEE799464346BB4601930091009B022B6BD1019B9A46002153460122002789461A403C4B00213F030C0D24053F0B27433B4C1B0527401F4397
:401440007F00D2077F0817434846391C07B03CBC90469946A246AB46F0BD03433ED05B46002B00D19CE1584601F072F92823311C1B1A021C5F46D940083A97400B1C96403F
:401480003B439B46B1460023284D00262D1A00938AE7524603213A43A0D10027002302219CE752463A4315D0002F00D185E1381C01F04EF9021C28215046891A131CC84070
:4014C0005146083B99409F400B1C074317480021801A83E70027002301217FE700239B4699460133042600935EE703230C2600935AE7032B00D13CE2012B00D0BFE11A1C5F
:40150000019B1A4000210023002789468EE700238027994600223F03004B87E7FF07000001FCFFFF1C310000FFFF0F800DFCFFFFBB4500D951E100D14CE14A46039200220E
:401540005C469046013D180E3F0238431B020193030C994603041B0C4946061C201C1F1C0093FFF759FD021C7A4302904946201C171CFFF7D7FD039B09041B0C19438F42CB
:401580000CD9029B8919013B8E4200D952E18F4200D84FE1029B8919023B0293CC1B201C4946FFF739FD009F834647434946201CFFF7B8FD039A0B041404240C23439F4284
:4015C0000DD95A469B19013A9E4200D930E19F4200D82DE10222524294469B19E344029ADB1B17045A463A439346019C170C220C101C04925A4611042204120C141C090CE7
:401600007C4305924A43414347436118100C09188C4203D980204002844667440C0C12040804120C3C198118A34200D2E5E000D1DFE01F1B43465C1AA04592415242BF1A52
:40164000B74200D10EE1381C4946FFF7E5FC009B029043434946381C9846FFF763FD230C0F041F43B8450CD9029BBF19013BBE4200D9FBE0B84500D8F8E0029BBF19023BE3
:4016800002934346FF1A4946381CFFF7C5FC009B039043434946381C9846FFF743FD24040904240C214388450CD9039B8919013B8E4200D9DCE0884500D8D9E0039B8919B4
:4016C000023B03934346C91A029B039A1B04059C1A43100C13049146221C049F1B0C5A4344437B437843E318170CDB199C4203D980246402A44660441C0C12041B04120CC6
:4017000000199B18814200D296E000D1FCE04A4601231A4391469B4BEB18002B00DC99E04A4652070AD00F2249460A40042A05D00431494592418946524293445A46D201C1
:4017400006D55A46904B1A4080239346DB00EB188E4A934200DD62E64A465946D208490711435A4689465702514601225B053F0B5B0D0A405AE680205A460003024208D063
:40178000074206D107433F0399463F0B4246804B4CE65F4607433F033F0B221C7C4B45E600F0D6FF031C2030272800DC5EE6083B9E400023B346994665E6504600F0C8FFCD
:4017C000021C2032272A00DC75E657460838874000237BE6994500D2AFE65A46594654084A46C8075208024303924A46D2079046A9E60027884500D31CE7019F5A46BC467C
:40180000E044B845BF417F42BF19FF18013ABE4206D2BC425FD800D19FE03F1B934609E7B742FAD1019B4345F3D9371B934601E79346D4E60293B1E64A468919013A8E4259
:4018400018D99146814200D061E7019A9A4200D05DE760E74F4F7F1B382F13DD012253461A404FE601235B42994654E7029308E7039327E788423CD874D0914647E7019B53
:401880009A4648E71F2F44DC434B4A469C465B466544FA40AB4013434A46AA40151C6A1E95415A46FA402B43171C5A0709D00F221A40042A05D01A1D9A429B415B42FF18F7
:4018C000131C3A023ED55346012200211A40002701238946AAE502235B429C46019AE3449446E04490459B415B429B19DF193F1BA0E6019F4A467C00BC42BF417F42BF1909
:40190000023AC91901949CE7002B95D1002201929BE75A46214B5B1BDA40202F27D0204B9C465B466544AB4049460B43591E8B411343072200271A4007D00F2200271A409C
:40194000042AB8D17A077F023F0BDB0813439946012253461A40002368E54145BBD89346002767E6019C9C42C3D391466DE70023DAE780275B463F031F433F033F0B019A2D
:40198000034B53E5FF030000FFFFFFFEFE070000FF07000002FCFFFF1E040000E2FBFFFF3E040000F0B55F4656464D464446F0B4051C061C080387B099464F00030BCC0F1B
:4019C00092469B467F0D019467D06C4B9F4236D080205B4640031843C0006B0F1843684B83469C4600239846EE00674400934B4649461D03C90F5B0052462D0B5B0D8946BF
:401A000000D16EE05D498B4264D080205C4940038C4600210543ED00500F0543D20063444846FF187B1C9A46009B604002900B430F2B00D9ACE053489B00C3589F465B4663
:401A40001D4300D082E00823009300239B46023300269846CBE7029B01934346022B59D1012400250026019B1C40444B00212D030A0D12052D0B1543434A1B0515401D43AE
:401A80006D00E4076D082543301C291C07B03CBC90469946A246AB46F0BD2B434ED05B46002B00D185E1584600F052FE021C2823291C9B1A161C5846D940083EB0400B1C60
:401AC000B54003439B462E1C0023304F0093BF1A98468CE7514629432ED10025002202219EE75146294323D0002D00D154E1281C00F02EFE031C28215046C91A1A1CC84088
:401B00005146083A914095400A1C05431F480021C31A85E7032B00D1C2E1012B00D06DE14446019B00251C40E4B2002300269DE700250022012173E7032171E704230093F8
:401B400000239B4601330026984650E70C230093093B98464BE7802500242D030026074B84E74B46AB46161C0193884675E7029BAB46161C019388466FE7C046FF0700000A
:401B800001FCFFFF5C310000FFFF0F800DFCFFFF330C3604360C9C46331C140C1204120C53439846634653439946634663430193331C41466343090C4B445B18994505D905
:401BC000802040028146019949440191190C039141460904090C1B045B1804932B0C9846331C2D04290C4B43604600934346654658435E43009B4D431B0C9946AE194E446D
:401C00008446B54203D980235B029946CC44350C2B1C0398634484460593009B36041B041B0CF3189C446046039058460504060C280C84465043351C814660466543444376
:401C40004846000C8346724314195C44A24203D98022520293465D44220CAD184A461204120C24044046A41862464A437143464360460096464670438046100C84468844C9
:401C8000E044414505D9802149028C46009961440091019803998446614499429B415B4299460598434684461204120C1B049B1863449C46AB4683429B4140460A19CC446E
:401CC000A2428941E344CC45B6415C46000C8046494276425B426418334398448C428941AB459B4149425B4219430D1C009B4544EE187602E50D2E43B346049B56021E437E
:401D0000731E9E415B46D20D324366021643DB010AD50123334076081E435B46DB071E435B465B089B465746634BFB18002B5ADD720709D00F223240042A05D0321DB24288
:401D4000B6417642B344161C5A46D20106D55A465A4B1A4080239346DB00FB18584A934234DD0124029B00251C400026554B7DE680205B460003034208D0054206D1054379
:401D80002D032D0B4C46161C4E4B6FE65D4605432D032D0B4B4B69E6504600F0D9FC031C2033272B00DCA6E65546083885400022ACE6281C00F0CCFC021C2032272A00DC5D
:401DC00075E6083885400026AB467DE65A46F608520716435A4601245502029A5B052D0B5B0D144042E6384DED1B382D0ADD0124029B00251C400026002337E6019B5746CA
:401E0000029391E71F2D25DC304B321C9C466744BE405B46BB40371CEA407E1EB74113433B431E1C5B46EB401D1C730709D00F233340042B05D0331DB342B6417642AD197E
:401E40001E1C2B0220D50124029B00251C40002601230BE65A461E4BDB1BDA40131C202D1CD01C4A94465A466744BA40171C3E43721E96411E4307230025334007D00F233B
:401E800000253340042BD6D16B076D022D0B0124F6081E43029B1C400023E7E50027E6E780255B4601242D031D43019B2D0323401C1C2D0B034BD9E5FF030000FFFFFFFE98
:401EC000FE070000FF07000002FCFFFF1E040000E2FBFFFF3E040000F0B54D4644465F465646F0B40E1C111C3203520A470F1743C5001A035800DB0F9946520A4B0F83B071
:401F00001A43CB000193CF4B7400F60F640DB046400D984200D1E8E00123494659400B1C9E4200D1B1E0261A002E00DC1CE1002842D1131C01990B4300D0E6E06B0700D104
:401F40008EE00F232B40042B00D189E02A1DAA42AD418023012641466D427F191B043B400E40151C002B00D183E0B64B01349C4200D116E13A1CB44BED081A40500764057C
:401F800052020543120B640D002112030B0D1B056405120B1A436308AC4CF60714401C43640064083443281C211C03B03CBC90469946A246AB46F0BDA24B9C42BED08023E9
:401FC0001B041A43382E00DD03E11F2E00DD3FE12020831B9946131C49468B409C46019B6046F34003430198F2408840011C481E81410B43EB1A9D4280411D1CBA1A4042B7
:40200000171A3B0200D4A8E07A02560A002E00D1CAE0301C00F09CFB031C083B1F2B00DDCBE02822291C121AD1409E400A1C9D4032439C4200DDC8E01C1B671C1F2F00DDE0
:40204000EDE01F23291C1C1B131CA540A340F9406C1EA541FA4019430D43171C00246DE78023012642461B043B401640002B00D07BE7744BED0878070543FA089C423BD09F
:4020800012036405120B640D7EE7231A9A46002B00DCA5E0002844D06A48844200D14DE78020000402435346382B00DC1CE1019B1A43511E8A41D1B200224919A9428041A9
:4020C0000D1CD219404217183B0246D55D4B01349C4200D169E101205B4A6B083A4028401843D5070543570828E7131C01990B4300D111E74B4613E72B1C134351D0802319
:402100001B031A431203120B3EE7013E002E00D080E0691A8D429B41BA1A5B42D71A0D1C6FE7101C019B184300D107E701235B429C46E2445346002B00D002E1019BD21978
:402140005919A9429B415B42D7180D1CBCE76346034300D128E1071C65466B0700D0F0E6012643461E4084E7002E00D081E0601C4005400D012800DC07E10199681A844666
:402180006545B641B81A7642861B300200D4A1E08C464D1BAC458941D21B4942561A984634E700220025EFE6281C00F0D1FA2030031C083B1F2B00DC33E7021C283A954094
:4021C0002A1C00259C4200DC36E71F4FE41A1740B4E6019B1A43511E8A41D3B2002209E7002B00D001E1601C43055B0D012B00DCB0E0144B984200D11EE1019BD2195919D3
:40220000A9429B415B42D2184908D5070D435708041C93E60B4B9C4200D0D3E68EE6211C131C1F39CB40191C202F00D18EE03F231C1BA24015436A1E954100270D4300244C
:402240008BE7C046FF070000FFFF7FFFFFFF0F80331C101C203BD840202E79D040239B1B9A40131C019A1343591E8B4100220343C0E6002C53D0C74CA04200D1B0E08024A5
:4022800071428946240427434946382900DDCDE01F2900DD59E120243E1C611A8E408A46B04649462E1CCE405146B4468D4064464646494626436C1EA541CF403543019980
:4022C000D71B8C464D1BAC4592415242BF1A041C984696E663466546334300D096E60026002700240025C4E61F2B61DC2020C31A9B46131C59468B4051469946019BCB4076
:402300009C464B46604603439C465B46019999406346481E814119435346DA40CDE63C1C2C435DD0F1438946002955D10199D21B8C464D1BAC4589414942571A041C9846F9
:402340005FE69448844200D0ADE6F7E5002271E7002387E73B1C2B43002C00D0DAE0002B00D113E1131C01990B4300D1E6E54919A9429B41D2195B42D7183B0200D421E15B
:40238000854B0D1C1F40041CD8E5381C2843002C40D1002800D083E0101C0199084303D0171C0D1C9846C9E500260027002560E65046131C2038C340181C5346202B00D104
:4023C000C1E0402351465B1A9A40019911434A1E91410022014370E66E4CA04200D053E7171C019D041C9846A8E5002C28D13C1C2C4300D18AE0DB439A46002B00D082E08B
:40240000019BD2199C4665449D42894149425718041C59E600285BD1101C0199084300D1A4E0171C0D1C98465A4C87E53D436F1EBD410027EDB242E7041C0027002518E61E
:40244000544CA04262D0534680245B429A46240427435346382B00DD8EE01F2B00DD9DE02024E31A9B463B1C59468B40514699462B1CCB409C464B46644623439C465B46C0
:402480009D4063466C1EA541CF401D43019BBF189C4665449D4292415242BF18041C13E6101C0199084300D148E5681A844685428041BE1A4042301A060200D447E68C4621
:4024C0004D1BAC458941D21B4942571A984635E5101C0199084334D080247807ED08FF0824032843274208D0D608264205D1C90852070A43101C371C9846FF00420F174337
:40250000C500244C1AE5234CA042A2D1171C019D041C13E5002B35D0131C01990B4310D080247807ED08FF08240328432742E4D0D3082342E1D1C90852070A43101C1F1CF5
:40254000DBE7144CFAE400223FE74C463E1C203CE6404946341C202932D04026761AB7403D436F1EBD4100272543A8E680270026FF03084C00257CE53D436F1EBD4100278B
:40258000EDB283E7171C019D024CD7E4171C019DD4E4C046FF070000FFFF7FFF54463B1C203CE3401C1C5346202B0DD0402351465B1A9F403D436F1EBD410027254365E78A
:4025C0000027CDE70D1CC8E50027F3E710B5041E10D000F0BDF8144A121A0A281ADC0B23211C1B1AD94015300B03520584401B0B520D01E00022002300211B03201C1C0B97
:402600000B0D1B052343094C1205234013435B00590810BD031C0B3B9C40520523031B0B520D0024E8E7C0461E040000FFFF0F8070B50B034D00440F6D0D5B0A23436C1CC3
:402640006405C90FC200640D012C2ADD3B4C2C19FE2C1ADC002C35DD8001451EA841DB000343520F13435A0704D00F221A40042A00D004338022D2041A4027D00134FF2CC5
:4026800003D09B015B0AE4B201E0FF2400235B02E4055B0A23435B00C9075B080B43181C70BD002D06D113430ED100245B025B0AE4B2ECE71A43E8D08020DB008004034359
:4026C000FF24D0E717340CDA05230024DB08FF2CECD1002B2DD08022D20313435B025B0AD5E78024164824042343401B1F280DDC144CA4466544AB401C1C131CAB405D1E7F
:40270000AB41C240234313430024ACE71E1C0E4C641BE640341C20280DD00C4884466544AB401D1C2A43531E9A41131C2343002499E70023ABE70025F4E7C04680FCFFFF78
:402740009E03000082FCFFFF7E030000A2FCFFFF1C2101231B04984201D3000C10391B0A984201D3000A08391B09984201D30009043902A2105C40187047C0460403020236
:40278000010101010000000000000000014B18687047C046440100200E4B70B500251E1C0D4CE41AA410A54204D0AB00F35898470135F8E700F00EFD084B00251E1C084C99
:4027C000E41AA410A54204D0AB00F35898470135F8E770BDE0310000E0310000E0310000E8310000031C8218934202D019700133FAE770470EB410B59DB002A902900861DA
:402800000B48822488604861012040421FABC881084804CBA400006801938C8100F06CF80023029A13701DB010BC08BC03B01847FFFFFF7F44010020F0B58E6885B0071CB3
:402840000C1C03920193B34245D390238A89DB001A423DD003250969236801985B1A029363695D43EB0F5D19029B6D1001331B189D4200D21D1C381C53050FD5291C00F01C
:4028800025FB061E13D0029A216900F0BCFAA289184B134080221343A38111E02A1C00F06DFB061E0CD1381C216900F0C9FA0C23402201203B60A38940421343A38117E09B
:4028C000029B2661F61826606561019EED1AA560019BB34200D2019E321C2068039900F09BFA0020A3689B1BA36023689E19266005B0F0BD7FFBFFFFF0B59FB00290059312
:402900008B890E1C171C1B0610D50B69002B0DD1402100F0DBFA30603061002804D10C23029A01381360D0E040237361002306AD6B6120336B761033AB763C1C2378002BA9
:4029400003D1E31B049312D003E0252BF9D00134F4E7049B0298311C3A1CFFF76DFF431C00D1ACE06A69049B944663446B612378002B00D1A3E00122002352426A6002A9DE
:402980005432521801342B60EB60AB601370AB654F4F2178381C052200F02AFA002808D0C01B01278740381C2B68013418432860EEE72B68DA0604D55322202102A8121844
:4029C00011701A0704D553222B2102A81218117022782A2A01D0099B0EE0059A111D12680591002A01DB099204E05242EA60022213432B60013409E02278303A092A04D87F
:402A00000A214B4301349B18F6E7099323782E2B18D163782A2B09D1059B02341A1D1B680592002B0DDA01235B420AE0002301342278303A092A04D80A214B4301349B18A5
:402A4000F6E70793234F2178381C032200F0D0F9002807D0C01B40278740381C2B6801341843286021781C480622671C297600F0BFF9002812D0194B002B06D10722059B73
:402A8000073393430833059314E005AB00930298291C321C124B00E000BF07E005AB00930298291C321C0E4B00F08AF80390039B013304D06B69039A9B186B613DE7B38928
:402AC0000B985B0601D5012040421FB0F0BDC0469E310000A4310000A83100000000000039280000F7B5171C01930A698B6800900C1C934200DA131C221C3B6043321278B2
:402B0000002A01D001333B6023689B0602D53B6802333B60062523681D401ED0231C43331B785A1E9341226892061CD53020E1184031C870211C5A1C45310978A2184032E5
:402B40000233D1700FE0221C0123009801991932089EB047431C0ED00135E3683A689B1A9D42F0DBDAE7221C009801994332089DA847431C02D10120404220E006232068F5
:402B8000E1683A6803400025042B03D18D1AEB43DB171D40A3682269934201DD9B1AED180027AF420ADA221C0123009801991A32089EB047431CDED00137F2E70020FEBD26
:402BC000F0B58BB006920A1C43320793059004920A7E0C1C109B6E2A00D1A8E011D8632A22D009D8002A00D1B2E0582A00D0C2E045310A707C4A4FE0642A1DD0692A1BD009
:402C0000B9E0732A00D1A7E009D86F2A29D0702A00D0B0E0202209680A43226037E0752A1FD0782A33D0A6E00E1C1A684236111D196013683370A1E021681A68080606D4EA
:402C4000490604D5111D19600023D55E02E0111D19601568002D3BDA2D23049A6D42137036E021681A68080606D4490604D51568111D1960ADB202E0111D196015685A4B68
:402C8000227E03930A276F2A1DD108271BE0221C782145321170554A19680392081D226818600D68100602D4500600D5ADB2D30702D520231A4322601027002D03D1202318
:402CC00022689A432260231C002243331A7002E00A27454B03936368A360002B03DB0422216891432160002D02D1049E002B0ED0049E281C391CFEF715FA039B013E5B5CF8
:402D0000281C3370391CFEF787F9051EF1D1082F09D12368DB0706D563682269934202DC3023013E3370049B9B1B23612BE009681A68080607D4490605D5111D196013685B
:402D4000A28A1A8004E0111D1960136862691A600023049E236116E01A68111D196016680021301C626800F043F8002801D0801B6060636803E0261C4236327001232361F4
:402D80000023049A1370079B05980093211C069B09AAFFF7A7FE431C02D10120404221E0236905980699321C079DA847431CF4D023689B0705D4099BE068984212DA181C43
:402DC00010E00025E368099A9B1A9D42F3DA221C0123059806991932079EB047431CDCD00135EFE70BB0F0BDAF310000C0310000C9B28218904204D003788B4202D0013094
:402E0000F8E700207047002310B5934203D0CC5CC4540133F9E710BD10B5814208D28B18984205D29B1A013A09D3995C8154FAE70023934203D0CC5CC4540133F9E710BD12
:402E400030B500293ED004390B68002B00DAC9181D4A1368141C002B02D14B60116031E099420DD208680A189A4203D11368C3180B6053684B60216024E08A4203D8131CE5
:402E80005A68002AF9D11D685C198C420BD10968691858181960904214D110685268091819605A600EE08C4202D90C23036009E008680C18944203D1146852680019086099
:402EC0004A60596030BDC046A0010020032370B5CC1C9C430834051C0C2C01D20C2405E0002C03DA0C2300202B6042E08C42F9D3204A1368101C191C002913D00A68121B9C
:402F00000DD40B2A02D90A608B181FE08B4202D15A6802601BE04A685A600B1C17E00B1C4968E9E7144E3368002B03D1281C00F04BF83060281C211C00F046F8031C421C74
:402F4000D0D00322C61C964386420AD11C60181C07210B301A1D8843821A0AD05142995007E0311A281C00F02FF8431CBAD0331CECE770BDA00100209C010020F8B5061C15
:402F80000C1C151C002904D1111CFFF79FFF041C18E0002A03D1FFF753FF2C1C12E000F025F8A8420ED2301C291CFFF78FFF071E07D0211C2A1CFFF726FF301C211CFFF75C
:402FC0003FFF3C1C201CF8BD38B50023064C051C081C2360FDF74CFA431C03D12368002B00D02B6038BDC0462C0200200B1F1A68101F002A04DA891804390B68D018043801
:4030000070470000000000005475726E20526967687454696E7900005475726E20526967687400005475726E204C6566740000004261636B7761726400000000466F727796
:40304000617264002564000000300F40000400400F40000404320F4003330F4004400F4005410F4007430F4002600F40B001BE01D804DF011A808240E62057085B01D440A1
:40308000D64083088B019F01A708E68018101C8060108840C60CD802E6040201110100000000000000000000101010101010101018181818181818181C1C1C1C1C1C1C1C67
:4030C0001E1E1E1E1E1E1E1E1F1F1F1F1F1F1F1F00000000000000000000000000000000030405060708090A0B0C0E0F101112131415161718191B1C1D1E1F202122232577
:40310000262728292A2B2E2F3031323334350000020400000204000073720000301500001E140000041500000A140000041500000E150000041500000A1400001E140000CC
:403140001E1400000E1500000A14000014140000141400001414000076170000901B00006E1B00006E1B0000621B0000561A0000561A0000561B0000621B0000561A00005F
:40318000561B0000561A0000621B00005A1A00005A1A00005A1A0000701D00004300232D302B2000686C4C00656667454647003031323334353637383941424344454600F4
:4031C0003031323334353637383961626364656600000000F8B5C046F8BC08BC9E46704715020000E9040000F8B5C046F8BC08BC9E467047ED01000008320000C8000020CD
:4032000080000000E800000000000000300200200000E02EC05D00001800000000366E010404040000000000000000000000000000000000000000000000000000000000E0
:40324000000000009C310000000000000000000000000000000000000000000000000000000000000000000000000000000000000000000000000000000000000000000081
:4032800000000000E400002000000000000000000000000000000000000000000000000000000000000000000000000000000000000000000000000000000000000000000A
:4032C00000000000000000000000000000000000000000000000000000000000000000000000000000000000000000000000000000000000000000000000000000000000CE
:40330000000000000000000000000000000000000000000000000000000000000000000000000000000000000000000000000000000000000000000000000000000000008D
:40334000000000000000000000000000000000000000000000000000000000000000000000000000000000000000000000000000000000000000000000000000000000004D
:40338000000000000000000000000000000000000000000000000000000000000000000000000000000000000000000000000000000000000000000000000000000000000D
:0200000490303A
:02000000460EAA
:0200000490402A
:200000000000000000000000000000000000000000000000000000000000000000000000E0
:0200000490501A
:0C0000000002041611931101042657A100
:0200000490600A
:0100000001FE
:00000001FF