:400000000010002011000000850200008502000008B500F039F9C04610B5184C23688022D20213432360182000F04EFA2268144B13402360134A144B1A603022134B1A60FA
:40004000203A134B1A601032124B1A6080221206114B1A60114B124A1360124A1360124A124B1A600920124900F012FA092000F003FA00220F4B1A6010BDC04600010B40CD
:40008000FFFFFBFF0600008004010B400C020240200202402402024008010B40070000800000024040000240CF00008080000240D90600000C020B4010B572B6002410E06D
:4000C000274863001A195200821891881B195B001A5AC31858880004104300F037F90134E4B2012CECD91E49081C0C301C3100F013F91C4A1C4B1A601C4A1D4B1A609923A9
:400100001B041C4A13608021C9041B4A11601B4A1360802212061A4B1A601A4B197802220A431A70184802783C218A4328390A430270197816220A431A70A022134B1A60C3
:40014000134A144B1A602022134B1A606032134B1A60134A134B1A60FFF75EFF10BDC046F0090000000099300000014000EE00300C00014000500F4008500F4030500F40E7
:4001800038500F4000700F4001700F40000004400010C300080004401800044000030440800DC0000803044010B5064C2378002B07D1054B002B02D0044800E000BF012336
:4001C000237010BDE000002000000000EC09000008B5084B002B03D00748084900E000BF07480368002B00D108BD064B002BFBD09847F9E700000000EC090000E4000020E3
:40020000C80000200000000038B500F0B9F800F019FB00F08BFB00F019F9C4B2462C05D1134800F0BBFA134800F02CFB532C06D1114D281C00F0B2FA281C00F023FB422C48
:4002400005D10E4800F0AAFA0D4800F01BFB522C05D1094800F0A2FA064800F013FB4C2CD9D1034800F09AFA034800F00BFBD2E7EC13000004100000941100003C0F0000F8
:4002800024130000FEE7C04670B50F4E0F4D13E029686B68AC68002202E001C901C30432A242FAD1E868002202E0002102C304328242FAD11035013E002EE9D100F068FB9E
:4002C000FFF7A2FFFEE7C04601000000780A000008B500230AE0032B03D89A000A49505800E00A4899000A4A885001332F2BF2D9FFF7E2FE0022074B1A608022D20511688B
:4003000001230B43136008BD000000008502000000000020C0000020F0B50025002711E0BB00C658F3B2FF22964308E06A008A181478A419527822700135013BDBB2002B6F
:40034000F4D10137032FEBD9F0BDC04608B50A1C002100F043FB08BD08B500F069F808BD08B500F01DF808BD08B5044A1368802109060B431360FFF7EFFF08BD000007409F
:4003800008B5064B1B78002B04D1FFF7E9FF0122024B1A70FFF7E8FF08BDC046FC00002010B5124A124B1A600023124A13600121114A1160114A1248026007241148046029
:4003C000114803601148016011490A60114A1360114A1360114A1360114A1360114A1360114A1360114A136010BDC0460B000002000007404000074048000740070000805D
:40040000000307400403074010030740440007400002074004020740880E0740C80E0740480F0740080F0740C80F0740880F0740044A1168044B0B40902109040B431360D7
:400440007047C04600000140FFFF0FFF08B500F083FA002802D000F079FA00E00020054B1A68D8239B001A4203D01A1C014B1A60002008BDC00F07401F2318401E3B8340A7
:40048000181C014B1860704700E100E001BE704738B5041C0D1C1F2802D90020FFF7F6FFA400034B9C4664442068256038BDC0464000002008B5034B1B7A584300F054FA96
:4004C00008BDC046CC000020F0B557464E46C0B483B0041C00F052FA0190E71E2D2F74D83F4B1B78DBB2A34208D33E4B1B78DBB29A463D4B1B78DBB2994631E03B4B1B788A
:40050000DBB2A34208D33A4B1B78DBB29A46394B1B78DBB2994623E0374B1B78DBB2A34208D3364B1B78DBB29A46354B1B78DBB2994615E0334B1B78DBB2A34208D3324B31
:400540001B78DBB29A46314B1B78DBB2994607E02F4B1B78DBB29A462E4B1B78DBB299462D4BDE5D2F2E09D92A2C07D919222B4B1A60052000F0F8F9192503E0274B1D68B6
:400580003F231D40AE4206D2234BDA5D234B1A60052000F0E9F91F4B9C4664442378DBB21F4A13601F4B52461A601F4B4A461A600520FFF77FFFAE420AD9174BDA5D174BE1
:4005C0001A60052000F0D0F902E00020FFF75EFF019800F0D7F903B00CBC91469A46F0BDC0F1FF0FC1F1FF0FC2F1FF0FC3F1FF0FC4F1FF0FC5F1FF0FC6F1FF0FC7F1FF0F02
:40060000C8F1FF0FC9F1FF0FCAF1FF0FCBF1FF0FCCF1FF0FCDF1FF0F240A00002CFF0B4028FF0B401CFF0B4020FF0B40034B1868C0231B02184000D00120704700010B4001
:4006400008B500F09BF9044A1368C02109020B43136000F097F908BD00010B4010B500F08DF908490A68084B1A408024E40122430A600A6813408022120213430B6000F003
:4006800081F910BD00010B40FF3FFFFF70B5061C00F074F9041CFFF7C9FF002803D0FFF7DDFF012500E000250848331C0340084A106808490840184310601368012D01D166
:4006C000FFF7BEFF201C00F05DF970BD0404040010020B40FBFBFBFF10B5244B1B685B0715D5234B1B685B070ED5224B9969042001401F4C22688A4322609A6982439A612B
:40070000DB68002B00D098470420FFF7BFFF174B1B685B0518D5164B1B685B0510D5154B99698022D2001140114802688A4302609969114A0A409A611B69002B00D0984750
:400740008020C000FFF7A2FF084B1B685B030CD5074B1B685B0304D5064B5B69002B00D098478020C002FFF791FF10BD10020B40DC00002000010020FFFBFFFF0004000C3B
:40078000014B18607047C046480105400004000C014B18607047C046540105400004000C014B18607047C0464C01054038B5041C0D1C00F0E3F8AC40024B1C6000F0E2F85C
:4007C00038BDC0460800054008B500F0D7F8064A116802230B43136000F0D4F802201821FFF7E4FF08BDC04600000540014B18607047C0467801054010B50D4C8023DB04A7
:400800002360236823600020FFF7B8FF236823600C22084B1A600120FFF7E8FF3122064B1A600648FFF7B2FF0548FFF7B7FF10BD40010540640105406801054060EA000052
:400840009411000008B5064B1B78002B04D1FFF7D3FF0122024B1A70FFF7B6FF08BDC0461C0100200004000C014B18607047C046080105400004000C014B18607047C0464D
:40088000140105400004000C014B18607047C0460C01054038B5041C0D1C00F06FF8AC40024B1C6000F06EF838BDC0460800054008B500F063F8064A116801230B43136065
:4008C00000F060F801201821FFF7E4FF08BDC04600000540014B18607047C0463801054010B50E4C8023DB042360236823600020FFF7B8FF236823600C22094B1A60012044
:40090000FFF7E8FF3122074B1A60074C201CFFF7B1FF201CFFF7B6FF10BDC046000105402401054028010540FFFF000008B5064B1B78002B04D1FFF7D3FF0122024B1A704D
:40094000FFF7B6FF08BDC0461D010020014B18687047C04640030740024B1B680F2018407047C046080307400230800804D0C0460138FDD1C046C046C0467047EFF3108074
:4009800072B6704780F310887047C046C046C0460E4B70B500251E1C0D4CE41AA410A54204D0AB00F35898470135F8E700F052F8084B00251E1C084CE41AA410A54204D04A
:4009C000AB00F35898470135F8E770BD600A0000600A0000600A0000680A0000031C8218934202D019700133FAE770470000000000300F40000400400F40000401330F40E2
:400A000002400F4002410F4007430F40E6205B01D6408B019F0118101C8060108840C60CD802E604030405060708090A0B0C0E0F101112131415161718191B1C1D1E1F20DE
:400A400021222325262728292A2B2E2F3031323334350000F8B5C046F8BC08BC9E467047D1010000D1020000F8B5C046F8BC08BC9E467047A9010000880A0000C800002017
:400A80001800000040000000000000000000E02EC05D00001800000000366E01040404000000000000000000000000000000000000000000000000000000000000000000EA
:400AC00000000000000000000000000000000000000000000000000000000000000000000000000000000000000000000000000000000000000000000000000000000000F6
:400B000000000000000000000000000000000000000000000000000000000000000000000000000000000000000000000000000000000000000000000000000000000000B5
:400B40000000000000000000000000000000000000000000000000000000000000000000000000000000000000000000000000000000000000000000000000000000000075
:400B80000000000000000000000000000000000000000000000000000000000000000000000000000000000000000000000000000000000000000000000000000000000035
:0200000490303A
:020000006B7221
:0200000490402A
:200000000000000000000000000000000000000000000000000000000000000000000000E0
:0200000490501A
:0C000000000204C81193110104CB7D051F
:0200000490600A
:0100000001FE
:00000001FF