:400000000010002011000000B9030000B903000008B500F0EBF9C04610B5194C23688022D20213432360182000F078FC2268154B13402360144A154B1A603022144B1A60AD
:40004000103A144B1A601023134A1360134A136082221206124B1A60124A134B1A60134A134B1A60134A144B1A600920134900F0FBFB092000F0ECFB0022114B1A6010BD28
:4000800000010B40FFFFFBFF0600008004010B400C0202401C020240200202402402024008010B4007000080000002400E00008040000240CF000080800002402D0B000034
:4000C0000C020B4010B572B6002410E02E4863001A195200821891881B195B001A5AC31858880004104300F0E3F90134E4B2012CECD92549081C0C30203100F0BFF9234AC3
:40010000234B1A60234A244B1A6099231B04234A13608021C904224A1160224A1360224A1360224A224B1A60224B197802220A431A70214802783C218A4328390A43027044
:40014000197816220A431A70A0221C4B1A601C4A1C4B1A6020221C4B1A6080231B4A13601B491C4A11601C4A136083221B4B1A601B4A1C4B1A6003221B4B1A60FFF74CFF32
:4001800000F0ACF910BDC0463C1C0000000099300000014067EE00300C00014000500F4008500F4020500F4030500F4000000F8038500F4000700F4001700F4000000440A6
:4001C0000010C300080004401800044000020440B66D1B00080204401802044000030440800DC000080304401803044010B5064C2378002B07D1054B002B02D0044800E0E4
:4002000000BF0123237010BD5801002000000000F01B000008B5084B002B03D00748084900E000BF07480368002B00D108BD064B002BFBD09847F9E700000000F01B00001E
:400240005C010020C80000200000000038B5051C074C201C0749022201F0B8F8201C06492A1C01F0C5F8201C00F06AFD38BDC046B0010020F41B0000F81B000038B562B662
:4002800000F050F9404800F0B3F9404800F0B0F9012000F021FB00F0B1FD3D4800F098FC012000F05BFD0020002100F0B7FD394800F046FD0A2000F00FFB00F07FFA00F06D
:4002C0008DFA00F02DFE00F09FFE022000F090FA002000F0A1FA304C2060012000F09CFA6060022000F098FAA060012000F036FD0120002100F092FD2068FFF7A7FF274DE4
:40030000281C00F01DFD6068FFF7A0FF281C00F017FDA068FFF79AFF214B224A1A605A602268214B9A420BDC0020002100F076FD1E4800F005FD1A4B1A4A1A605A6017E07E
:40034000154B9A68184B9A420BDC0020002100F065FD174800F0F4FC114B124A1A605A6006E00020002100F059FD124800F0E8FC0B4C206800F080FD606800F0F1FD0A2080
:4003800000F0AAFAA1E7C046FC1B0000081C0000C81C00000C1C000074010020141C0000CC0000209411000057020000181C0000241C0000301C0000FEE7C04608B5031C9E
:4003C000084A1068C318084A9A1A802A02DC054A136005E000F0CEFF0C2303600120404208BDC046D80000200002002070B50F4E0F4D13E029686B68AC68002202E001C935
:4004000001C30432A242FAD1E868002202E0002102C304328242FAD11035013E002EE9D100F0AEFFFFF72AFFFEE7C04601000000641D000008B500230AE0032B03D89A0012
:400440000A49505800E00A4899000A4A885001332F2BF2D9FFF736FE0022074B1A608022D205116801230B43136008BD00000000B903000000000020C0000020F0B50025F7
:40048000002711E0BB00C658F3B2FF22964308E06A008A181478A419527822700135013BDBB2002BF4D10137042FEBD9F0BDC04608B50A1C002100F092FF08BD064B1B6824
:4004C000002803D080221206134301E05B005B08014A13607047C04680031A4008B5044B044A1360044A13600120FFF7E7FF08BD80000C0000031A4040031A4008B500F077
:4005000069F808BD08B500F01DF808BD08B5044A1368802109060B431360FFF7EFFF08BD0000074008B5064B1B78002B04D1FFF7E9FF0122024B1A70FFF7E8FF08BDC04606
:400540008401002010B5124A124B1A600023124A13600121114A1160114A12480260072411480460114803601148016011490A60114A1360114A1360114A1360114A13608D
:40058000114A1360114A1360114A136010BDC0460B00000200000740400007404800074007000080000307400403074010030740440007400002074004020740880E07401D
:4005C000C80E0740480F0740080F0740C80F0740880F0740044A1168044B0B40902109040B4313607047C04600000140FFFF0FFF38B5051C002402E000F016FD0134285D2B
:400600000028F9D138BDC04610B50E20032100F03DF90E20434900F027F90722424B1A60424B1B68002B01DA414900E04149424A13680B431360414A414B1A60414A424B1B
:400640001A608022D205414B1A60414B414A1360414A1360414B1A68802149020A431A603F4A13680B43136000233E4A13603E4A136001333D4A136002213D4A11603D498B
:4006800008683D4A024013430B60002447E03B49A2005058DC239B0103400919097B0B4337498C4662441360C30708D52D49086880225202131CA3401B0C03430B60A300DA
:4006C0002E4A9B589B0708D52749086880225202131CA3401B0C03430B60A300274A9B589A0502D58020C00001E080204001DB0504D463000021234A995203E063000021B6
:40070000204A9952204B5843204B9C466044204900F03EFD00B2A2001E4BD0500134022CB5D910BD4508000020001A4080031A40702010137020001300001A40AD000080BD
:4007400004001A400000FF0F18001A401C001A400200020010001A4014001A4000031A4040031A4028021A4038021A4018021A40000F1A4030001A40FFFFFFDF881C000050
:4007800080001A40F001002010270000E40C0000C8190000E401002008B5074B1B68002B08DB054A1368802109060B4313600A2000F0AAF808BDC04600001A4008B5064B77
:4007C0001B78002B04D1FFF71FFF0122024B1A70FFF7E2FF08BDC04685010020034A1368802149020B4313607047C04604001A40021C83070CD0074B1B680120184001D1DC
:400800009307F8D4002804D00122024B1A6000E00020704710021A4010B5041E022C02D9002000F01FF8022C07D8A400044B9C46644420680004000C00E0002000B210BD91
:4008400080011A40014B1A681A60704710021A401F2318401E3B8340181C014B1860704700E100E001BE704738B5041C0D1C1F2802D90020FFF7F6FFA400034B9C466444B7
:400880002068256038BDC0464000002070B5041C0E1E032E02D90020FFF7E4FF1F2C02D90020FFF7DFFF03252540ED00063500F0D5FBA408A400074B9C46644423680322EF
:4008C000AA409343AE40351C1D43256000F0CAFB70BDC04600E400E010B5041C06E0084B186800F0B1FB074B9C46644480231B029C42F4D8024B5868604300F0A5FB10BDDB
:40090000DC0000200080FFFF08B5034B1B7A584300F09AFB08BDC046DC000020F0B557464E46C0B483B0041C00F098FB0190E71E2D2F74D83F4B1B78DBB2A34208D33E4B65
:400940001B78DBB29A463D4B1B78DBB2994631E03B4B1B78DBB2A34208D33A4B1B78DBB29A46394B1B78DBB2994623E0374B1B78DBB2A34208D3364B1B78DBB29A46354B0B
:400980001B78DBB2994615E0334B1B78DBB2A34208D3324B1B78DBB29A46314B1B78DBB2994607E02F4B1B78DBB29A462E4B1B78DBB299462D4BDE5D2F2E09D92A2C07D9EC
:4009C00019222B4B1A60052000F03EFB192503E0274B1D683F231D40AE4206D2234BDA5D234B1A60052000F02FFB1F4B9C4664442378DBB21F4A13601F4B52461A601F4B35
:400A00004A461A600520FFF77FFFAE420AD9174BDA5D174B1A60052000F016FB02E00020FFF720FF019800F01DFB03B00CBC91469A46F0BDC0F1FF0FC1F1FF0FC2F1FF0FCE
:400A4000C3F1FF0FC4F1FF0FC5F1FF0FC6F1FF0FC7F1FF0FC8F1FF0FC9F1FF0FCAF1FF0FCBF1FF0FCCF1FF0FCDF1FF0F981C00002CFF0B4028FF0B401CFF0B4020FF0B407D
:400A8000034B1868C0231B02184000D00120704700010B4008B500F0E1FA044A1368C02109020B43136000F0DDFA08BD00010B4010B500F0D3FA08490A68084B1A408024B0
:400AC000E40122430A600A6813408022120213430B6000F0C7FA10BD00010B40FF3FFFFF70B5061C00F0BAFA041CFFF7C9FF002803D0FFF7DDFF012500E000250848331CA0
:400B00000340084A106808490840184310601368012D01D1FFF7BEFF201C00F0A3FA70BD0404040010020B40FBFBFBFF10B5244B1B685B0715D5234B1B685B070ED5224B21
:400B40009969042001401F4C22688A4322609A6982439A61DB68002B00D098470420FFF7BFFF174B1B685B0518D5164B1B685B0510D5154B99698022D200114011480268CD
:400B80008A4302609969114A0A409A611B69002B00D098478020C000FFF7A2FF084B1B685B030CD5074B1B685B0304D5064B5B69002B00D098478020C002FFF791FF10BD4A
:400BC00010020B40EC00002088010020FFFBFFFF38B5051C00F04EF8402000F0BFF8002404E0285D00F0A0F80134E4B23F2CF8D900F040F8802000F0B1F838BD10B50B4C12
:400C000023686022934323602368513A93432360226810231843104320600120FFF774FE236810229343236010BDC0460002044038B5051C0E4C22682023134323602368A3
:400C40004022934323600020FFF75EFE23680F2293432360236810202843184320600120FFF752FE236810229343236038BDC04600020440F8B5274A13687F218B431360F9
:400C800025490B681B0B1B03244803430B60136820218B431360116840230B431360CA277F000020FFF730FE1A4C23681026334323600120FFF728FE194B1D682368B343DD
:400CC00023600020FFF720FE08231D402368334323600120FFF718FE2368B3432360002D02D10A20FFF710FE013F002D01D0002FD7D1084B1A6840218A431A601A683F314E
:400D00008A431A60044A13681B0B1B0305490B431360F8BD00020440080204404902000004020440B60D000010B5041CFFF7A2FF2009FFF77DFF0F202040FFF779FF10BDCE
:400D400038B5051C0078012404E0FFF7EDFF285D0134E4B20028F8D138BDC04610B5041CFFF788FF2009FFF749FF0F202040FFF745FF10BD08B52820FFF7AEFD0320FFF7A8
:400D80003DFF0520FFF7A8FD0320FFF737FF0F20FFF7A2FD0320FFF731FF0120FFF79CFD0220FFF72BFF0520FFF796FD0620FFF7D5FF0E20FFF7D2FF2C20FFF7CFFF08201E
:400DC000FFF7CCFF0120FFF7C9FF0C20FFF7C6FF0320FFF7C3FF0520FFF77EFD0148FFF7F7FE08BDC81C000008B50C20FFF7B6FF0122014B1A7008BDA401002008B5064BF9
:400E00005B78002B04D1FFF7B5FF0122024B5A70FFF7EAFF08BDC046A401002008B501280BD0002804D002280CD003280FD012E08039C8B2FFF792FF0DE04039C8B2FFF73D
:400E40008DFF08E06C39C8B2FFF788FF03E02C39C8B2FFF783FF08BD0004000C014B18607047C046080105400004000C014B18607047C046140105400004000C014B1860C5
:400E80007047C0460C01054038B5041C0D1C00F0E5F8AC40024B1C6000F0E4F838BDC0460800054008B500F0D9F8064A116801230B43136000F0D6F801201821FFF7E4FF3A
:400EC00008BDC04600000540014B18607047C0463801054010B50D4C8023DB042360236823600020FFF7B8FF236823600C22084B1A600120FFF7E8FF3122064B1A60064872
:400F0000FFF7B2FF0548FFF7B7FF10BD00010540240105402801054060EA0000B80B000008B5064B1B78002B04D1FFF7D3FF0122024B1A70FFF7B6FF08BDC046A601002079
:400F40000004000C014B18607047C046480105400004000C014B18607047C046540105400004000C014B18607047C0464C01054038B5041C0D1C00F071F8AC40024B1C60C0
:400F800000F070F838BDC0460800054008B500F065F8064A116802230B43136000F062F802201821FFF7E4FF08BDC04600000540014B18607047C0467801054010B50D4CED
:400FC0008023DB042360236823600020FFF7B8FF236823600C22084B1A600120FFF7E8FF3122064B1A600648FFF7B2FF0548FFF7B7FF10BD40010540640105406801054053
:4010000060EA00007017000008B5064B1B78002B04D1FFF7D3FF0122024B1A70FFF7B6FF08BDC046A7010020044B1B680F221340082BF9D0024B18607047C0460802074019
:4010400040020740000000000230800804D0C0460138FDD1C046C046C0467047EFF3108072B6704780F310887047C046C046C046002243088B4274D303098B425FD3030AC5
:401080008B4244D3030B8B4228D3030C8B420DD3FF22090212BA030C8B4202D31212090265D0030B8B4219D300E0090AC30B8B4201D3CB03C01A5241830B8B4201D38B038C
:4010C000C01A5241430B8B4201D34B03C01A5241030B8B4201D30B03C01A5241C30A8B4201D3CB02C01A5241830A8B4201D38B02C01A5241430A8B4201D34B02C01A524137
:40110000030A8B4201D30B02C01A5241CDD2C3098B4201D3CB01C01A524183098B4201D38B01C01A524143098B4201D34B01C01A524103098B4201D30B01C01A5241C30885
:401140008B4201D3CB00C01A524183088B4201D38B00C01A524143088B4201D34B00C01A5241411A00D20146524110467047FFE701B5002000F0FCF802BDC0460029F7D065
:4011800003B5FFF775FF0EBC4243891A1847C04603460B437FD4002243088B4274D303098B425FD3030A8B4244D3030B8B4228D3030C8B420DD3FF22090212BA030C8B42E9
:4011C00002D31212090265D0030B8B4219D300E0090AC30B8B4201D3CB03C01A5241830B8B4201D38B03C01A5241430B8B4201D34B03C01A5241030B8B4201D30B03C01AE7
:401200005241C30A8B4201D3CB02C01A5241830A8B4201D38B02C01A5241430A8B4201D34B02C01A5241030A8B4201D30B02C01A5241CDD2C3098B4201D3CB01C01A524136
:4012400083098B4201D38B01C01A524143098B4201D34B01C01A524103098B4201D30B01C01A5241C3088B4201D3CB00C01A524183088B4201D38B00C01A524143088B429C
:4012800001D34B00C01A5241411A00D201465241104670475DE0CA0F00D04942031000D34042534000229C4603098B422DD3030A8B4212D3FC22890112BA030A8B420CD359
:4012C000890192118B4208D3890192118B4204D389013AD0921100E08909C3098B4201D3CB01C01A524183098B4201D38B01C01A524143098B4201D34B01C01A5241030921
:401300008B4201D30B01C01A5241C3088B4201D3CB00C01A524183088B4201D38B00C01A5241D9D243088B4201D34B00C01A5241411A00D20146634652415B10104601D337
:401340004042002B00D54942704763465B1000D3404201B5002000F00BF802BD0029F8D003B5FFF715FF0EBC4243891A1847C0467047C046014B18687047C04650010020F7
:401380000E4B70B500251E1C0D4CE41AA410A54204D0AB00F35898470135F8E700F0D0FC084B00251E1C084CE41AA410A54204D0AB00F35898470135F8E770BD4C1D0000F1
:4013C0004C1D00004C1D0000541D0000002310B5934203D0CC5CC4540133F9E710BD031C8218934202D019700133FAE7704700000EB410B59DB002A9029008610B488224D1
:4014000088604861012040421FABC881084804CBA400006801938C8100F06CF80023029A13701DB010BC08BC03B01847FFFFFF7F50010020F0B58E6885B0071C0C1C0392F7
:401440000193B34245D390238A89DB001A423DD003250969236801985B1A029363695D43EB0F5D19029B6D1001331B189D4200D21D1C381C53050FD5291C00F01DFB061EB1
:4014800013D0029A2169FFF7A1FFA289184B134080221343A38111E02A1C00F065FB061E0CD1381C216900F0C1FA0C23402201203B60A38940421343A38117E0029B2661EF
:4014C000F61826606561019EED1AA560019BB34200D2019E321C2068039900F092FA0020A3689B1BA36023689E19266005B0F0BD7FFBFFFFF0B59FB0029005938B890E1C15
:40150000171C1B0610D50B69002B0DD1402100F0D3FA30603061002804D10C23029A01381360D0E040237361002306AD6B6120336B761033AB763C1C2378002B03D1E31B31
:40154000049312D003E0252BF9D00134F4E7049B0298311C3A1CFFF76DFF431C00D1ACE06A69049B944663446B612378002B00D1A3E00122002352426A6002A954325218D4
:4015800001342B60EB60AB601370AB654F4F2178381C052200F02AFA002808D0C01B01278740381C2B68013418432860EEE72B68DA0604D55322202102A8121811701A07A6
:4015C00004D553222B2102A81218117022782A2A01D0099B0EE0059A111D12680591002A01DB099204E05242EA60022213432B60013409E02278303A092A04D80A214B437C
:4016000001349B18F6E7099323782E2B18D163782A2B09D1059B02341A1D1B680592002B0DDA01235B420AE0002301342278303A092A04D80A214B4301349B18F6E70793FB
:40164000234F2178381C032200F0D0F9002807D0C01B40278740381C2B6801341843286021781C480622671C297600F0BFF9002812D0194B002B06D10722059B07339343EE
:401680000833059314E005AB00930298291C321C124B00E000BF07E005AB00930298291C321C0E4B00F08AF80390039B013304D06B69039A9B186B613DE7B3890B985B0648
:4016C00001D5012040421FB0F0BDC0460A1D0000101D0000141D00000000000035140000F7B5171C01930A698B6800900C1C934200DA131C221C3B6043321278002A01D0DF
:4017000001333B6023689B0602D53B6802333B60062523681D401ED0231C43331B785A1E9341226892061CD53020E1184031C870211C5A1C45310978A21840320233D1707E
:401740000FE0221C0123009801991932089EB047431C0ED00135E3683A689B1A9D42F0DBDAE7221C009801994332089DA847431C02D10120404220E006232068E1683A6894
:4017800003400025042B03D18D1AEB43DB171D40A3682269934201DD9B1AED180027AF420ADA221C0123009801991A32089EB047431CDED00137F2E70020FEBDF0B58BB045
:4017C00006920A1C43320793059004920A7E0C1C109B6E2A00D1A8E011D8632A22D009D8002A00D1B2E0582A00D0C2E045310A707C4A4FE0642A1DD0692A1BD0B9E0732AC7
:4018000000D1A7E009D86F2A29D0702A00D0B0E0202209680A43226037E0752A1FD0782A33D0A6E00E1C1A684236111D196013683370A1E021681A68080606D4490604D50C
:40184000111D19600023D55E02E0111D19601568002D3BDA2D23049A6D42137036E021681A68080606D4490604D51568111D1960ADB202E0111D196015685A4B227E03936E
:401880000A276F2A1DD108271BE0221C782145321170554A19680392081D226818600D68100602D4500600D5ADB2D30702D520231A4322601027002D03D1202322689A43FB
:4018C0002260231C002243331A7002E00A27454B03936368A360002B03DB0422216891432160002D02D1049E002B0ED0049E281C391CFFF743FC039B013E5B5C281C33705B
:40190000391CFFF7B5FB051EF1D1082F09D12368DB0706D563682269934202DC3023013E3370049B9B1B23612BE009681A68080607D4490605D5111D19601368A28A1A805F
:4019400004E0111D1960136862691A600023049E236116E01A68111D196016680021301C626800F043F8002801D0801B6060636803E0261C42363270012323610023049A0D
:401980001370079B05980093211C069B09AAFFF7A7FE431C02D10120404221E0236905980699321C079DA847431CF4D023689B0705D4099BE068984212DA181C10E0002503
:4019C000E368099A9B1A9D42F3DA221C0123059806991932079EB047431CDCD00135EFE70BB0F0BD1B1D00002C1D0000C9B28218904204D003788B4202D00130F8E700200E
:401A0000704710B5814208D28B18984205D29B1A013A09D3995C8154FAE70023934203D0CC5CC4540133F9E710BD000030B500293ED004390B68002B00DAC9181D4A136842
:401A4000141C002B02D14B60116031E099420DD208680A189A4203D11368C3180B6053684B60216024E08A4203D8131C5A68002AF9D11D685C198C420BD1096869185818D1
:401A80001960904214D110685268091819605A600EE08C4202D90C23036009E008680C18944203D114685268001908604A60596030BDC046AC010020032370B5CC1C9C4334
:401AC0000834051C0C2C01D20C2405E0002C03DA0C2300202B6042E08C42F9D3204A1368101C191C002913D00A68121B0DD40B2A02D90A608B181FE08B4202D15A68026018
:401B00001BE04A685A600B1C17E00B1C4968E9E7144E3368002B03D1281C00F04BF83060281C211C00F046F8031C421CD0D00322C61C964386420AD11C60181C07210B3013
:401B40001A1D8843821A0AD05142995007E0311A281C00F02FF8431CBAD0331CECE770BDAC010020A8010020F8B5061C0C1C151C002904D1111CFFF79FFF041C18E0002AED
:401B800003D1FFF753FF2C1C12E000F025F8A8420ED2301C291CFFF78FFF071E07D0211C2A1CFFF713FC301C211CFFF73FFF3C1C201CF8BD38B50023064C051C081C23602F
:401BC000FEF7FCFB431C03D12368002B00D02B6038BDC046F80100200B1F1A68101F002A04DA891804390B68D018043870470000000000002000000025640000446174616F
:401C000020537461727400000D0A000053544152542100002D0000005475726E206C6566743A00005475726E2072696768743A00476F20666F7277617264000000300F406A
:401C4000000400400F40000404320F4003330F4002400F4002410F400B430F40B401BE10D804DF0118048C04E6205B01D6408B019F0118101C805402601088408C02C60CC2
:401C8000D604D802E402E60402040000020400000204000072077300030405060708090A0B0C0E0F101112131415161718191B1C1D1E1F2021222325262728292A2B2E2FE1
:401CC00030313233343500000000000000000000101010101010101018181818181818181C1C1C1C1C1C1C1C1E1E1E1E1E1E1E1E1F1F1F1F1F1F1F1F0000000000000000AD
:401D000000000000000000004300232D302B2000686C4C0065666745464700303132333435363738394142434445460030313233343536373839616263646566000000006D
:401D4000F8B5C046F8BC08BC9E4670471502000035040000F8B5C046F8BC08BC9E467047ED010000781D0000C800002090000000A80000000000000000000000941100003F
:401D8000941100000000B4C2000200200000E02EC05D00001800000000366E01040404000000000000000000000000000000000000000000000000000000000000000000F2
:401DC000081D0000000000000000000000000000000000000000000000000000000000000000000000000000000000000000000000000000000000000000000000000000BE
:401E0000F000002000000000000000000000000000000000000000000000000000000000000000000000000000000000000000000000000000000000000000000000000092
:401E40000000000000000000000000000000000000000000000000000000000000000000000000000000000000000000000000000000000000000000000000000000000062
:401E80000000000000000000000000000000000000000000000000000000000000000000000000000000000000000000000000000000000000000000000000000000000022
:401EC00000000000000000000000000000000000000000000000000000000000000000000000000000000000000000000000000000000000000000000000000000000000E2
:401F000000000000000000000000000000000000000000000000000000000000000000000000000000000000000000000000000000000000000000000000000000000000A1
:0200000490303A
:020000009DC69B
:0200000490402A
:200000000000000000000000000000000000000000000000000000000000000000000000E0
:0200000490501A
:0C0000000002041611931101041FAF59F7
:0200000490600A
:0100000001FE
:00000001FF